{
  "contractName": "PostContract",
  "abi": [
    {
      "inputs": [],
      "stateMutability": "nonpayable",
      "type": "constructor"
    },
    {
      "anonymous": false,
      "inputs": [
        {
          "indexed": false,
          "internalType": "uint256",
          "name": "id",
          "type": "uint256"
        },
        {
          "indexed": false,
          "internalType": "string",
          "name": "content",
          "type": "string"
        },
        {
          "indexed": false,
          "internalType": "address",
          "name": "author",
          "type": "address"
        }
      ],
      "name": "PostCreated",
      "type": "event"
    },
    {
      "inputs": [],
      "name": "owner",
      "outputs": [
        {
          "internalType": "address",
          "name": "",
          "type": "address"
        }
      ],
      "stateMutability": "view",
      "type": "function",
      "constant": true
    },
    {
      "inputs": [],
      "name": "postCount",
      "outputs": [
        {
          "internalType": "uint256",
          "name": "",
          "type": "uint256"
        }
      ],
      "stateMutability": "view",
      "type": "function",
      "constant": true
    },
    {
      "inputs": [
        {
          "internalType": "uint256",
          "name": "",
          "type": "uint256"
        }
      ],
      "name": "posts",
      "outputs": [
        {
          "internalType": "uint256",
          "name": "id",
          "type": "uint256"
        },
        {
          "internalType": "string",
          "name": "content",
          "type": "string"
        },
        {
          "internalType": "address",
          "name": "author",
          "type": "address"
        }
      ],
      "stateMutability": "view",
      "type": "function",
      "constant": true
    },
    {
      "stateMutability": "payable",
      "type": "receive",
      "payable": true
    },
    {
      "inputs": [
        {
          "internalType": "string",
          "name": "_content",
          "type": "string"
        }
      ],
      "name": "createPost",
      "outputs": [],
      "stateMutability": "nonpayable",
      "type": "function"
    },
    {
      "inputs": [
        {
          "internalType": "uint256",
          "name": "_id",
          "type": "uint256"
        }
      ],
      "name": "getPost",
      "outputs": [
        {
          "internalType": "uint256",
          "name": "",
          "type": "uint256"
        },
        {
          "internalType": "string",
          "name": "",
          "type": "string"
        },
        {
          "internalType": "address",
          "name": "",
          "type": "address"
        }
      ],
      "stateMutability": "view",
      "type": "function",
      "constant": true
    },
    {
      "inputs": [
        {
          "internalType": "address payable",
          "name": "recipient",
          "type": "address"
        },
        {
          "internalType": "uint256",
          "name": "amount",
          "type": "uint256"
        }
      ],
      "name": "transferEther",
      "outputs": [],
      "stateMutability": "nonpayable",
      "type": "function"
    }
  ],
  "bytecode": "0x608060405234801561001057600080fd5b50600280546001600160a01b03191633179055610781806100326000396000f3fe6080604052600436106100595760003560e01c806305b1137b146100655780630b1e7f831461008757806317906c2e146100bf57806340731c24146100e15780638da5cb5b14610101578063c7303c611461012357610060565b3661006057005b600080fd5b34801561007157600080fd5b506100856100803660046104e5565b610143565b005b34801561009357600080fd5b506100a76100a23660046105bc565b6101d1565b6040516100b693929190610667565b60405180910390f35b3480156100cb57600080fd5b506100d4610285565b6040516100b6919061065e565b3480156100ed57600080fd5b506100a76100fc3660046105bc565b61028b565b34801561010d57600080fd5b50610116610379565b6040516100b691906105d4565b34801561012f57600080fd5b5061008561013e36600461051b565b610388565b6002546001600160a01b031633146101765760405162461bcd60e51b815260040161016d9061061d565b60405180910390fd5b804710156101965760405162461bcd60e51b815260040161016d906105e8565b6040516001600160a01b0383169082156108fc029083906000818181858888f193505050501580156101cc573d6000803e3d6000fd5b505050565b600060208190529081526040902080546001820180549192916101f3906106d3565b80601f016020809104026020016040519081016040528092919081815260200182805461021f906106d3565b801561026c5780601f106102415761010080835404028352916020019161026c565b820191906000526020600020905b81548152906001019060200180831161024f57829003601f168201915b505050600290930154919250506001600160a01b031683565b60015481565b60006060600080600080868152602001908152602001600020604051806060016040529081600082015481526020016001820180546102c9906106d3565b80601f01602080910402602001604051908101604052809291908181526020018280546102f5906106d3565b80156103425780601f1061031757610100808354040283529160200191610342565b820191906000526020600020905b81548152906001019060200180831161032557829003601f168201915b5050509183525050600291909101546001600160a01b03166020918201528151908201516040909201519097919650945092505050565b6002546001600160a01b031681565b600180549060006103988361070e565b909155505060408051606081018252600180548083526020808401868152338587015260009283528282529490912083518155935180519394936103e393850192919091019061044c565b5060409182015160029190910180546001600160a01b0319166001600160a01b0390921691909117905560015490517f618e7c0a5a81623326df1e96b95cff24f2c4577dee149d58c750693fc1059a14916104419184903390610667565b60405180910390a150565b828054610458906106d3565b90600052602060002090601f01602090048101928261047a57600085556104c0565b82601f1061049357805160ff19168380011785556104c0565b828001600101855582156104c0579182015b828111156104c05782518255916020019190600101906104a5565b506104cc9291506104d0565b5090565b5b808211156104cc57600081556001016104d1565b600080604083850312156104f7578182fd5b82356001600160a01b038116811461050d578283fd5b946020939093013593505050565b6000602080838503121561052d578182fd5b823567ffffffffffffffff80821115610544578384fd5b818501915085601f830112610557578384fd5b81358181111561056957610569610735565b604051601f8201601f191681018501838111828210171561058c5761058c610735565b60405281815283820185018810156105a2578586fd5b818585018683013790810190930193909352509392505050565b6000602082840312156105cd578081fd5b5035919050565b6001600160a01b0391909116815260200190565b6020808252818101527f496e73756666696369656e742062616c616e636520696e20636f6e7472616374604082015260600190565b60208082526021908201527f4f6e6c7920746865206f776e65722063616e207472616e7366657220457468656040820152603960f91b606082015260800190565b90815260200190565b600084825260206060818401528451806060850152825b8181101561069a5786810183015185820160800152820161067e565b818111156106ab5783608083870101525b506001600160a01b039490941660408401525050601f91909101601f19160160800192915050565b6002810460018216806106e757607f821691505b6020821081141561070857634e487b7160e01b600052602260045260246000fd5b50919050565b600060001982141561072e57634e487b7160e01b81526011600452602481fd5b5060010190565b634e487b7160e01b600052604160045260246000fdfea264697066735822122007c705fdf9066040c6d2d9547bc60b379606cd6b90d147f870844e95a402b9f364736f6c63430008000033",
  "immutableReferences": {},
  "source": "// contracts/PostContract.sol\r\npragma solidity ^0.8.0;\r\n\r\ncontract PostContract {\r\n    struct Post {\r\n        uint id;\r\n        string content;\r\n        address author;\r\n    }\r\n\r\n    mapping(uint => Post) public posts;\r\n    uint public postCount;\r\n    address public owner;\r\n\r\n    event PostCreated(uint id, string content, address author);\r\n\r\n    constructor() {\r\n        owner = msg.sender;\r\n    }\r\n\r\n    function createPost(string memory _content) public {\r\n        postCount++;\r\n        posts[postCount] = Post(postCount, _content, msg.sender);\r\n        emit PostCreated(postCount, _content, msg.sender);\r\n    }\r\n\r\n    function getPost(uint _id) public view returns (uint, string memory, address) {\r\n        Post memory post = posts[_id];\r\n        return (post.id, post.content, post.author);\r\n    }\r\n\r\n    // Function to receive Ether. msg.data must be empty\r\n    receive() external payable {}\r\n\r\n    // Function to transfer Ether from the contract to a specified address\r\n    function transferEther(address payable recipient, uint256 amount) public {\r\n        require(msg.sender == owner, \"Only the owner can transfer Ether\");\r\n        require(address(this).balance >= amount, \"Insufficient balance in contract\");\r\n        recipient.transfer(amount);\r\n    }\r\n}",
  "sourcePath": "C:\\Users\\prohi\\Downloads\\client\\client\\blockchain-social-media\\contracts\\PostContract.sol",
  "compiler": {
    "name": "solc",
    "version": "0.8.0+commit.c7dfd78e.Emscripten.clang"
  },
  "schemaVersion": "3.4.16",
  "updatedAt": "2024-10-14T12:51:19.431Z",
  "networkType": "ethereum",
  "devdoc": {
    "kind": "dev",
    "methods": {},
    "version": 1
  },
  "userdoc": {
    "kind": "user",
    "methods": {},
    "version": 1
  }
}