{
  "contractName": "SocialMedia",
  "abi": [
    {
      "inputs": [],
      "name": "postCount",
      "outputs": [
        {
          "internalType": "uint256",
          "name": "",
          "type": "uint256"
        }
      ],
      "stateMutability": "view",
      "type": "function",
      "constant": true
    },
    {
      "inputs": [
        {
          "internalType": "uint256",
          "name": "",
          "type": "uint256"
        }
      ],
      "name": "posts",
      "outputs": [
        {
          "internalType": "uint256",
          "name": "id",
          "type": "uint256"
        },
        {
          "internalType": "string",
          "name": "content",
          "type": "string"
        },
        {
          "internalType": "address",
          "name": "author",
          "type": "address"
        }
      ],
      "stateMutability": "view",
      "type": "function",
      "constant": true
    },
    {
      "inputs": [
        {
          "internalType": "string",
          "name": "_content",
          "type": "string"
        }
      ],
      "name": "createPost",
      "outputs": [],
      "stateMutability": "nonpayable",
      "type": "function"
    },
    {
      "inputs": [
        {
          "internalType": "uint256",
          "name": "_id",
          "type": "uint256"
        }
      ],
      "name": "getPost",
      "outputs": [
        {
          "components": [
            {
              "internalType": "uint256",
              "name": "id",
              "type": "uint256"
            },
            {
              "internalType": "string",
              "name": "content",
              "type": "string"
            },
            {
              "internalType": "address",
              "name": "author",
              "type": "address"
            }
          ],
          "internalType": "struct SocialMedia.Post",
          "name": "",
          "type": "tuple"
        }
      ],
      "stateMutability": "view",
      "type": "function",
      "constant": true
    }
  ],
  "bytecode": "0x608060405234801561001057600080fd5b50610aaf806100206000396000f3fe608060405234801561001057600080fd5b506004361061004c5760003560e01c80630b1e7f831461005157806317906c2e1461008357806340731c24146100a1578063c7303c61146100d1575b600080fd5b61006b60048036038101906100669190610607565b6100ed565b60405161007a939291906107cb565b60405180910390f35b61008b6101cf565b60405161009891906107b0565b60405180910390f35b6100bb60048036038101906100b69190610607565b6101d5565b6040516100c8919061078e565b60405180910390f35b6100eb60048036038101906100e691906105c6565b610386565b005b600081815481106100fd57600080fd5b906000526020600020906003020160009150905080600001549080600101805461012690610949565b80601f016020809104026020016040519081016040528092919081815260200182805461015290610949565b801561019f5780601f106101745761010080835404028352916020019161019f565b820191906000526020600020905b81548152906001019060200180831161018257829003601f168201915b5050505050908060020160009054906101000a900473ffffffffffffffffffffffffffffffffffffffff16905083565b60015481565b6101dd61046f565b6000821180156101ef57506001548211155b61022e576040517f08c379a00000000000000000000000000000000000000000000000000000000081526004016102259061076e565b60405180910390fd5b600060018361023d9190610897565b81548110610274577f4e487b7100000000000000000000000000000000000000000000000000000000600052603260045260246000fd5b9060005260206000209060030201604051806060016040529081600082015481526020016001820180546102a790610949565b80601f01602080910402602001604051908101604052809291908181526020018280546102d390610949565b80156103205780601f106102f557610100808354040283529160200191610320565b820191906000526020600020905b81548152906001019060200180831161030357829003601f168201915b505050505081526020016002820160009054906101000a900473ffffffffffffffffffffffffffffffffffffffff1673ffffffffffffffffffffffffffffffffffffffff1673ffffffffffffffffffffffffffffffffffffffff16815250509050919050565b600160008154809291906103999061097b565b91905055506000604051806060016040528060015481526020018381526020013373ffffffffffffffffffffffffffffffffffffffff1681525090806001815401808255809150506001900390600052602060002090600302016000909190919091506000820151816000015560208201518160010190805190602001906104229291906104a6565b5060408201518160020160006101000a81548173ffffffffffffffffffffffffffffffffffffffff021916908373ffffffffffffffffffffffffffffffffffffffff160217905550505050565b60405180606001604052806000815260200160608152602001600073ffffffffffffffffffffffffffffffffffffffff1681525090565b8280546104b290610949565b90600052602060002090601f0160209004810192826104d4576000855561051b565b82601f106104ed57805160ff191683800117855561051b565b8280016001018555821561051b579182015b8281111561051a5782518255916020019190600101906104ff565b5b509050610528919061052c565b5090565b5b8082111561054557600081600090555060010161052d565b5090565b600061055c6105578461083a565b610809565b90508281526020810184848401111561057457600080fd5b61057f848285610907565b509392505050565b600082601f83011261059857600080fd5b81356105a8848260208601610549565b91505092915050565b6000813590506105c081610a62565b92915050565b6000602082840312156105d857600080fd5b600082013567ffffffffffffffff8111156105f257600080fd5b6105fe84828501610587565b91505092915050565b60006020828403121561061957600080fd5b6000610627848285016105b1565b91505092915050565b610639816108cb565b82525050565b610648816108cb565b82525050565b60006106598261086a565b6106638185610875565b9350610673818560208601610916565b61067c81610a51565b840191505092915050565b60006106928261086a565b61069c8185610886565b93506106ac818560208601610916565b6106b581610a51565b840191505092915050565b60006106cd601483610886565b91507f506f737420646f6573206e6f742065786973742e0000000000000000000000006000830152602082019050919050565b60006060830160008301516107186000860182610750565b5060208301518482036020860152610730828261064e565b91505060408301516107456040860182610630565b508091505092915050565b610759816108fd565b82525050565b610768816108fd565b82525050565b60006020820190508181036000830152610787816106c0565b9050919050565b600060208201905081810360008301526107a88184610700565b905092915050565b60006020820190506107c5600083018461075f565b92915050565b60006060820190506107e0600083018661075f565b81810360208301526107f28185610687565b9050610801604083018461063f565b949350505050565b6000604051905081810181811067ffffffffffffffff821117156108305761082f610a22565b5b8060405250919050565b600067ffffffffffffffff82111561085557610854610a22565b5b601f19601f8301169050602081019050919050565b600081519050919050565b600082825260208201905092915050565b600082825260208201905092915050565b60006108a2826108fd565b91506108ad836108fd565b9250828210156108c0576108bf6109c4565b5b828203905092915050565b60006108d6826108dd565b9050919050565b600073ffffffffffffffffffffffffffffffffffffffff82169050919050565b6000819050919050565b82818337600083830152505050565b60005b83811015610934578082015181840152602081019050610919565b83811115610943576000848401525b50505050565b6000600282049050600182168061096157607f821691505b60208210811415610975576109746109f3565b5b50919050565b6000610986826108fd565b91507fffffffffffffffffffffffffffffffffffffffffffffffffffffffffffffffff8214156109b9576109b86109c4565b5b600182019050919050565b7f4e487b7100000000000000000000000000000000000000000000000000000000600052601160045260246000fd5b7f4e487b7100000000000000000000000000000000000000000000000000000000600052602260045260246000fd5b7f4e487b7100000000000000000000000000000000000000000000000000000000600052604160045260246000fd5b6000601f19601f8301169050919050565b610a6b816108fd565b8114610a7657600080fd5b5056fea2646970667358221220ac997a7c4a77964334a56ec56440a523ece9c8fadbd0cddb2116ba30a6abd7d464736f6c63430008000033",
  "immutableReferences": {},
  "source": "// SPDX-License-Identifier: MIT\npragma solidity ^0.8.0;\n\ncontract SocialMedia {\n    struct Post {\n        uint id;\n        string content;\n        address author;\n    }\n\n    Post[] public posts;\n    uint public postCount;\n\n    function createPost(string memory _content) public {\n        postCount++;\n        posts.push(Post(postCount, _content, msg.sender));\n    }\n\n    function getPost(uint _id) public view returns (Post memory) {\n        require(_id > 0 && _id <= postCount, \"Post does not exist.\");\n        return posts[_id - 1];\n    }\n}\n",
  "sourcePath": "/Users/apple/Desktop/Projects/roit/contracts/SocialMedia.sol",
  "compiler": {
    "name": "solc",
    "version": "0.8.0+commit.c7dfd78e.Emscripten.clang"
  },
  "schemaVersion": "3.4.16",
  "updatedAt": "2024-10-10T09:45:38.557Z",
  "networkType": "ethereum",
  "devdoc": {
    "kind": "dev",
    "methods": {},
    "version": 1
  },
  "userdoc": {
    "kind": "user",
    "methods": {},
    "version": 1
  }
}