{
  "contractName": "SocialMedia",
  "abi": [
    {
      "anonymous": false,
      "inputs": [
        {
          "indexed": false,
          "internalType": "uint256",
          "name": "id",
          "type": "uint256"
        },
        {
          "indexed": false,
          "internalType": "string",
          "name": "content",
          "type": "string"
        },
        {
          "indexed": false,
          "internalType": "address",
          "name": "author",
          "type": "address"
        },
        {
          "indexed": false,
          "internalType": "uint256",
          "name": "timestamp",
          "type": "uint256"
        }
      ],
      "name": "PostCreated",
      "type": "event"
    },
    {
      "inputs": [],
      "name": "postCount",
      "outputs": [
        {
          "internalType": "uint256",
          "name": "",
          "type": "uint256"
        }
      ],
      "stateMutability": "view",
      "type": "function",
      "constant": true
    },
    {
      "inputs": [
        {
          "internalType": "string",
          "name": "_content",
          "type": "string"
        }
      ],
      "name": "createPost",
      "outputs": [],
      "stateMutability": "nonpayable",
      "type": "function"
    },
    {
      "inputs": [
        {
          "internalType": "uint256",
          "name": "_id",
          "type": "uint256"
        }
      ],
      "name": "getPost",
      "outputs": [
        {
          "components": [
            {
              "internalType": "uint256",
              "name": "id",
              "type": "uint256"
            },
            {
              "internalType": "string",
              "name": "content",
              "type": "string"
            },
            {
              "internalType": "address",
              "name": "author",
              "type": "address"
            },
            {
              "internalType": "uint256",
              "name": "timestamp",
              "type": "uint256"
            }
          ],
          "internalType": "struct SocialMedia.Post",
          "name": "",
          "type": "tuple"
        }
      ],
      "stateMutability": "view",
      "type": "function",
      "constant": true
    },
    {
      "inputs": [],
      "name": "getAllPosts",
      "outputs": [
        {
          "components": [
            {
              "internalType": "uint256",
              "name": "id",
              "type": "uint256"
            },
            {
              "internalType": "string",
              "name": "content",
              "type": "string"
            },
            {
              "internalType": "address",
              "name": "author",
              "type": "address"
            },
            {
              "internalType": "uint256",
              "name": "timestamp",
              "type": "uint256"
            }
          ],
          "internalType": "struct SocialMedia.Post[]",
          "name": "",
          "type": "tuple[]"
        }
      ],
      "stateMutability": "view",
      "type": "function",
      "constant": true
    }
  ],
  "bytecode": "0x60806040526000805534801561001457600080fd5b50610d3f806100246000396000f3fe608060405234801561001057600080fd5b506004361061004c5760003560e01c806317906c2e14610051578063305611001461006f57806340731c241461008d578063c7303c61146100bd575b600080fd5b6100596100d9565b60405161006691906109f9565b60405180910390f35b6100776100df565b6040516100849190610995565b60405180910390f35b6100a760048036038101906100a2919061072f565b6102f5565b6040516100b491906109d7565b60405180910390f35b6100d760048036038101906100d291906106ee565b61046f565b005b60005481565b60606000805467ffffffffffffffff811115610124577f4e487b7100000000000000000000000000000000000000000000000000000000600052604160045260246000fd5b60405190808252806020026020018201604052801561015d57816020015b61014a610590565b8152602001906001900390816101425790505b5090506000600190505b60005481116102ed5760016000828152602001908152602001600020604051806080016040529081600082015481526020016001820180546101a890610bd9565b80601f01602080910402602001604051908101604052809291908181526020018280546101d490610bd9565b80156102215780601f106101f657610100808354040283529160200191610221565b820191906000526020600020905b81548152906001019060200180831161020457829003601f168201915b505050505081526020016002820160009054906101000a900473ffffffffffffffffffffffffffffffffffffffff1673ffffffffffffffffffffffffffffffffffffffff1673ffffffffffffffffffffffffffffffffffffffff168152602001600382015481525050826001836102989190610b27565b815181106102cf577f4e487b7100000000000000000000000000000000000000000000000000000000600052603260045260246000fd5b602002602001018190525080806102e590610c0b565b915050610167565b508091505090565b6102fd610590565b60008211801561030f57506000548211155b61034e576040517f08c379a0000000000000000000000000000000000000000000000000000000008152600401610345906109b7565b60405180910390fd5b600160008381526020019081526020016000206040518060800160405290816000820154815260200160018201805461038690610bd9565b80601f01602080910402602001604051908101604052809291908181526020018280546103b290610bd9565b80156103ff5780601f106103d4576101008083540402835291602001916103ff565b820191906000526020600020905b8154815290600101906020018083116103e257829003601f168201915b505050505081526020016002820160009054906101000a900473ffffffffffffffffffffffffffffffffffffffff1673ffffffffffffffffffffffffffffffffffffffff1673ffffffffffffffffffffffffffffffffffffffff1681526020016003820154815250509050919050565b60008081548092919061048190610c0b565b9190505550604051806080016040528060005481526020018281526020013373ffffffffffffffffffffffffffffffffffffffff1681526020014281525060016000805481526020019081526020016000206000820151816000015560208201518160010190805190602001906104f99291906105ce565b5060408201518160020160006101000a81548173ffffffffffffffffffffffffffffffffffffffff021916908373ffffffffffffffffffffffffffffffffffffffff160217905550606082015181600301559050507fb4af4b9562ae3030a4905c2c59e4d1a62b4e502925d1c337efa53dca6127d5476000548233426040516105859493929190610a14565b60405180910390a150565b60405180608001604052806000815260200160608152602001600073ffffffffffffffffffffffffffffffffffffffff168152602001600081525090565b8280546105da90610bd9565b90600052602060002090601f0160209004810192826105fc5760008555610643565b82601f1061061557805160ff1916838001178555610643565b82800160010185558215610643579182015b82811115610642578251825591602001919060010190610627565b5b5090506106509190610654565b5090565b5b8082111561066d576000816000905550600101610655565b5090565b600061068461067f84610a91565b610a60565b90508281526020810184848401111561069c57600080fd5b6106a7848285610b97565b509392505050565b600082601f8301126106c057600080fd5b81356106d0848260208601610671565b91505092915050565b6000813590506106e881610cf2565b92915050565b60006020828403121561070057600080fd5b600082013567ffffffffffffffff81111561071a57600080fd5b610726848285016106af565b91505092915050565b60006020828403121561074157600080fd5b600061074f848285016106d9565b91505092915050565b600061076483836108b1565b905092915050565b61077581610b5b565b82525050565b61078481610b5b565b82525050565b600061079582610ad1565b61079f8185610af4565b9350836020820285016107b185610ac1565b8060005b858110156107ed57848403895281516107ce8582610758565b94506107d983610ae7565b925060208a019950506001810190506107b5565b50829750879550505050505092915050565b600061080a82610adc565b6108148185610b05565b9350610824818560208601610ba6565b61082d81610ce1565b840191505092915050565b600061084382610adc565b61084d8185610b16565b935061085d818560208601610ba6565b61086681610ce1565b840191505092915050565b600061087e601383610b16565b91507f506f737420646f6573206e6f74206578697374000000000000000000000000006000830152602082019050919050565b60006080830160008301516108c96000860182610977565b50602083015184820360208601526108e182826107ff565b91505060408301516108f6604086018261076c565b5060608301516109096060860182610977565b508091505092915050565b600060808301600083015161092c6000860182610977565b506020830151848203602086015261094482826107ff565b9150506040830151610959604086018261076c565b50606083015161096c6060860182610977565b508091505092915050565b61098081610b8d565b82525050565b61098f81610b8d565b82525050565b600060208201905081810360008301526109af818461078a565b905092915050565b600060208201905081810360008301526109d081610871565b9050919050565b600060208201905081810360008301526109f18184610914565b905092915050565b6000602082019050610a0e6000830184610986565b92915050565b6000608082019050610a296000830187610986565b8181036020830152610a3b8186610838565b9050610a4a604083018561077b565b610a576060830184610986565b95945050505050565b6000604051905081810181811067ffffffffffffffff82111715610a8757610a86610cb2565b5b8060405250919050565b600067ffffffffffffffff821115610aac57610aab610cb2565b5b601f19601f8301169050602081019050919050565b6000819050602082019050919050565b600081519050919050565b600081519050919050565b6000602082019050919050565b600082825260208201905092915050565b600082825260208201905092915050565b600082825260208201905092915050565b6000610b3282610b8d565b9150610b3d83610b8d565b925082821015610b5057610b4f610c54565b5b828203905092915050565b6000610b6682610b6d565b9050919050565b600073ffffffffffffffffffffffffffffffffffffffff82169050919050565b6000819050919050565b82818337600083830152505050565b60005b83811015610bc4578082015181840152602081019050610ba9565b83811115610bd3576000848401525b50505050565b60006002820490506001821680610bf157607f821691505b60208210811415610c0557610c04610c83565b5b50919050565b6000610c1682610b8d565b91507fffffffffffffffffffffffffffffffffffffffffffffffffffffffffffffffff821415610c4957610c48610c54565b5b600182019050919050565b7f4e487b7100000000000000000000000000000000000000000000000000000000600052601160045260246000fd5b7f4e487b7100000000000000000000000000000000000000000000000000000000600052602260045260246000fd5b7f4e487b7100000000000000000000000000000000000000000000000000000000600052604160045260246000fd5b6000601f19601f8301169050919050565b610cfb81610b8d565b8114610d0657600080fd5b5056fea2646970667358221220ce64cd777d5762c398941bf7458d4d7d63f56dcb97f342f0da5d2834b010a28964736f6c63430008000033",
  "immutableReferences": {},
  "source": "// SPDX-License-Identifier: MIT\npragma solidity ^0.8.0;\n\ncontract SocialMedia {\n    uint256 public postCount = 0;\n\n    struct Post {\n        uint256 id;\n        string content;\n        address author;\n        uint256 timestamp;\n    }\n\n    mapping(uint256 => Post) private posts;\n\n    event PostCreated(uint256 id, string content, address author, uint256 timestamp);\n\n    // Create a new post\n    function createPost(string memory _content) public {\n        postCount++;\n        posts[postCount] = Post(postCount, _content, msg.sender, block.timestamp);\n        emit PostCreated(postCount, _content, msg.sender, block.timestamp);\n    }\n\n    // Retrieve a single post by ID\n    function getPost(uint256 _id) public view returns (Post memory) {\n        require(_id > 0 && _id <= postCount, \"Post does not exist\");\n        return posts[_id];\n    }\n\n    // Retrieve all posts\n    function getAllPosts() public view returns (Post[] memory) {\n        Post[] memory _posts = new Post[](postCount);\n        for (uint256 i = 1; i <= postCount; i++) {\n            _posts[i - 1] = posts[i];\n        }\n        return _posts;\n    }\n}\n",
  "sourcePath": "/Users/apple/Desktop/Projects/roit/contracts/SocialMedia.sol",
  "compiler": {
    "name": "solc",
    "version": "0.8.0+commit.c7dfd78e.Emscripten.clang"
  },
  "schemaVersion": "3.4.16",
  "updatedAt": "2024-10-10T17:03:39.624Z",
  "networkType": "ethereum",
  "devdoc": {
    "kind": "dev",
    "methods": {},
    "version": 1
  },
  "userdoc": {
    "kind": "user",
    "methods": {},
    "version": 1
  }
}